:1000000044C05EC05DC05CC05BC0FFC359C058C087
:1000100057C056C055C054C053C052C051C050C044
:100020004FC04EC04DC04CC07DC280C281C282C292
:1000300083C284C285C29FC2A0C2A1C2A2C2A3C2FF
:10004000A4C2A5C2C1C2C2C2C3C2C4C2C5C2C6C2C2
:10005000C7C2FEC201C306C309C30CC30FC312C388
:1000600015C318C31BC31EC321C324C327C32AC37C
:100070002DC332C335C338C33BC33EC341C344C39E
:1000800047C34CC34FC352C355C311241FBECFEF48
:10009000D1E0DEBFCDBF11E0A0E0B1E0E8EEF8E0D6
:1000A00002C005900D92A830B107D9F711E0A8E081
:1000B000B1E001C01D92A734B107E1F7B5D312C476
:1000C0009FCF9B01AC0160E072E18AE790E0E8D34A
:1000D000DA01C9014097A109B109B695A79597958D
:1000E00087958093B8009091B80081E09B3008F428
:1000F00080E0089594EA9093BC009091BC0097FF33
:10010000FCCF9091B900987F983021F0903111F098
:1001100080E00895880F680F6093BB0084E88093A7
:10012000BC008091BC0087FFFCCF8091B900887F24
:10013000883111F0803461F781E0089584E980937B
:10014000BC008091BC0087FDFCCF08958093BB006C
:1001500084E88093BC008091BC0087FFFCCF909125
:10016000B900987F81E0983209F480E0089584EC2A
:100170008093BC008091BC0087FFFCCF8091BB00C6
:10018000089584E88093BC008091BC0087FFFCCF79
:100190008091BB00089584E085B98CE284B980E247
:1001A00085B92C9881E58CBD08958EBD0DB407FEF0
:1001B000FDCF8EB50895529808952A988FEC97E058
:1001C0000197F1F700C000002A9A8FEC97E00197A1
:1001D000F1F700C000002A981C99FECF80E3E5DF0C
:1001E0001C99FECF84E085B90895CF93DF931F92C9
:1001F000CDB7DEB72A981C99FECF6983D6DF698117
:10020000862F0F90DF91CF91D0CFEF92FF920F9377
:100210001F93CF93DF9300D0CDB7DEB7142F806448
:100220002A981C99FECF69837A83BFDF6981062FE4
:10023000E62E7A81F72E8E2D801B811728F4F70188
:1002400081917F01B2DFF7CF84E085B90F900F90E5
:10025000DF91CF911F910F91FF90EF9008952A9811
:100260001C99FECFA2DF84E085B9089580682A98A2
:100270001C99FECF9ADF80E098DF94E095B908954D
:10028000EF92FF920F931F93CF93DF9300D0CDB7E0
:10029000DEB7142F806C2A981C99FECF69837A836D
:1002A00084DF6981062FE62E7A81F72E8E2D801B42
:1002B000811730F480E079DFF70181937F01F6CF79
:1002C00084E085B90F900F90DF91CF911F910F912E
:1002D000FF90EF900895806C2A981C99FECF65DFFF
:1002E00080E063DF94E095B9089568E08BE07DDFFE
:1002F00060E08CE07ADF60E18DE077DF67EA8EE036
:1003000074DF62E68FE071DF6BE580E16EDF68EF3E
:1003100081E16BDF63E082E168DF62E283E165DF58
:1003200068EF84E162DF60E08AE05FDF67E485E137
:100330005CDF66EB81E259DF60E182E256DF68E173
:1003400088E153DF6DE189E150DF6CE18AE14DDF47
:1003500067EC8BE14ADF60E08CE147DF62EB8DE127
:1003600044DF6AEE83E241DF6AE284E23EDF60E07E
:1003700085E23BDF61E186E238DF69E589E235DF6E
:1003800061E88CE232DF65E38DE22FDF69E08EE227
:100390002CDF6BE080E029DF66E082E026DF64E0AE
:1003A00087E023DF65E088E020DF60E089E01DDF93
:1003B0006DE386E01ACFEFDEFEDE84E085B980E2F1
:1003C00085B92B98FADE91DF48E060E071E08EE3BA
:1003D0001CCF0F931F93CF93DF931F92CDB7DEB740
:1003E0008C01462F8FE3498300DF4981B8018FE3F9
:1003F0000CDF85E334DF4D9BFECF4D99FECF8AE3C2
:100400006ADF182F8BE32BDF1F7781E009F080E094
:100410000F90DF91CF911F910F91089584E31FCF2B
:10042000EF92FF921F93CF93DF9300D0CDB7DEB74B
:100430007C018BE350DF182F1F7769F08FE316DF05
:10044000182F482FB7018FE31BDF42E0BE016F5F1B
:100450007F4F8FE315DF8AE302DF812F0F900F902C
:10046000DF91CF911F91FF90EF900895882319F0AD
:100470008130D9F00895613051F028F0623061F098
:10048000633079F00895809169008C7F27C0809156
:1004900069008C7F816022C0809169008C7F8260BE
:1004A0001DC080916900836019C0613051F028F04F
:1004B000623061F0633079F0089580916900837F44
:1004C0000DC080916900837F846008C080916900BD
:1004D000837F886003C0809169008C60809369008D
:1004E0000895882319F0813019F00895E89A089545
:1004F000E99A0895E82F883028F580916800816096
:10050000809368008E2F90E0FC013197E730F10571
:1005100028F4EC5EFF4F80916B00099480916B0092
:10052000816001C0826080936B0008958460FBCF7E
:100530008860F9CF8061F7CF8062F5CF8064F3CF18
:100540008068F1CF88EF8E0F883028F580916800A1
:100550008260809368008E2F90E0FC013997E7302D
:10056000F10528F4E55EFF4F80916C0009948091BD
:100570006C0081600DC082600BC0846009C088601F
:1005800007C0806105C0806203C0806401C08068CC
:1005900080936C00089580EF8E0F883028F580914D
:1005A00068008460809368008E2F90E0FC01719752
:1005B000E730F10528F4EE5DFF4F80916D0009945E
:1005C00080916D0081600DC082600BC0846009C0A5
:1005D000886007C0806105C0806203C0806401C07C
:1005E000806880936D000895809168008860809392
:1005F0006800E93169F018F4E83131F00895EA3122
:1006000059F0EB3169F0089580916A0081600BC068
:1006100080916A00826007C080916A00846003C094
:1006200080916A00886080936A000895882319F099
:10063000813019F00895E8980895E998089590E0B8
:100640008C31910508F07BC0FC01E75DFF4F0994F8
:1006500080916B008E7F03C080916B008D7F8093B3
:100660006B006DC080916B008B7FF9CF80916B0028
:10067000877FF5CF80916B008F7EF1CF80916B00EB
:100680008F7DEDCF80916B008F7BE9CF80916B00E8
:100690008F77E5CF80916C008E7F1BC080916C00BE
:1006A0008D7F17C080916C008B7F13C080916C0090
:1006B000877F0FC080916C008F7E0BC080916C0093
:1006C0008F7D07C080916C008F7B03C080916C0090
:1006D0008F7780936C0033C080916D008E7F1BC03C
:1006E00080916D008D7F17C080916D008B7F13C04E
:1006F00080916D00877F0FC080916D008F7E0BC051
:1007000080916D008F7D07C080916D008F7B03C04D
:1007100080916D008F7780936D0011C080916A0089
:100720008E7F0BC080916A008D7F07C080916A0028
:100730008B7F03C080916A00877F80936A008091DD
:100740006B00811104C0809168008E7F17C080917A
:100750006C00811104C0809168008D7F0FC0809172
:100760006D00811104C0809168008B7F07C080916B
:100770006A00811105C080916800877F80936800BE
:100780000895883038F08E3040F0863148F4ECE639
:10079000F0E008C0EDE6F0E005C0EBE6F0E002C0F6
:1007A000E0E0F0E09081282F277041E050E060E029
:1007B00070E004C0440F551F661F771F2A95D2F7BB
:1007C000492B40832BB3883030F0803130F08831B2
:1007D00030F091E005C092E003C098E001C094E0E1
:1007E000922B9BBB90916800883030F0803130F0C4
:1007F000883130F081E005C082E003C088E001C0AC
:1008000084E0892B8093680008951F920F920FB6A1
:100810000F9211248F9381E0809308018F910F90A4
:100820000FBE0F901F901895C6DD81E354DDD82FC1
:10083000F5DD60EA76E881E090E043DC81112AC0D2
:10084000FFCF8D2F83DC85E346DD85E344DD8130FA
:1008500059F085E340DD2FEF89E698E12150804093
:100860009040E1F700C0000089E091E0D9DDC82F99
:10087000882319F08091110169DC8C2F67DC5EDC24
:100880002FEF87EA91E6215080409040E1F700C0C9
:100890000000C4DD60E084E02DDC8111D2CFEFCF19
:1008A000A1E21A2EAA1BBB1BFD010DC0AA1FBB1F74
:1008B000EE1FFF1FA217B307E407F50720F0A21BE6
:1008C000B30BE40BF50B661F771F881F991F1A9453
:1008D00069F760957095809590959B01AC01BD017D
:0808E000CF010895F894FFCF49
:0808E800606060606060606008
:00000001FF
