:1000000044C05EC05DC05CC05BC02FC459C058C056
:1000100057C056C055C054C053C052C051C050C044
:100020004FC04EC04DC04CC0ADC2B0C2B1C2B2C2D2
:10003000B3C2B4C2B5C2CFC2D0C2D1C2D2C2D3C27F
:10004000D4C2D5C2F1C2F2C2F3C2F4C2F5C2F6C242
:10005000F7C22EC331C336C339C33CC33FC342C307
:1000600045C348C34BC34EC351C354C357C35AC3FC
:100070005DC362C365C368C36BC36EC371C374C31E
:1000800077C37CC37FC382C385C311241FBECFEF58
:10009000D1E0DEBFCDBF11E0A0E0B1E0E4E2FDE0E1
:1000A00002C005900D92A830B107D9F711E0A8E081
:1000B000B1E001C01D92A938B107E1F7E5D330C620
:1000C0009FCF9B01AC0160E072E18AE790E006D629
:1000D000DA01C9014097A109B109B695A79597958D
:1000E00087958093B8009091B80081E09B3008F428
:1000F00080E0089594EA9093BC009091BC0097FF33
:10010000FCCF9091B900987F983021F0903111F098
:1001100080E00895880F680F6093BB0084E88093A7
:10012000BC008091BC0087FFFCCF8091B900887F24
:10013000883111F0803461F781E0089584E980937B
:10014000BC008091BC0087FDFCCF08958093BB006C
:1001500084E88093BC008091BC0087FFFCCF909125
:10016000B900987F81E0983209F480E0089584EC2A
:100170008093BC008091BC0087FFFCCF8091BB00C6
:10018000089584E88093BC008091BC0087FFFCCF79
:100190008091BB000895413160F590910C0191115F
:1001A000FCCF91E090930C019FEF90930A01109285
:1001B0000901940F90930801880F90910B01892BEE
:1001C00080930B0185EE8093BC0080910C018130FF
:1001D000E1F380910901841710F440910901962FF1
:1001E000FB018E2F891B841710F41192FACF842FF4
:1001F000089580E0089584E085B98CE284B980E2B6
:1002000085B92C9881E58CBD08958EBD0DB407FE8F
:10021000FDCF8EB50895529808952A988FEC97E0F7
:100220000197F1F700C000002A9A8FEC97E0019740
:10023000F1F700C000002A981C99FECF80E3E5DFAB
:100240001C99FECF84E085B90895CF93DF931F9268
:10025000CDB7DEB72A981C99FECF6983D6DF6981B6
:10026000862F0F90DF91CF91D0CFEF92FF920F9317
:100270001F93CF93DF9300D0CDB7DEB7142F8064E8
:100280002A981C99FECF69837A83BFDF6981062F84
:10029000E62E7A81F72E8E2D801B811728F4F70128
:1002A00081917F01B2DFF7CF84E085B90F900F9085
:1002B000DF91CF911F910F91FF90EF9008952A98B1
:1002C0001C99FECFA2DF84E085B9089580682A9842
:1002D0001C99FECF9ADF80E098DF94E095B90895ED
:1002E000EF92FF920F931F93CF93DF9300D0CDB780
:1002F000DEB7142F806C2A981C99FECF69837A830D
:1003000084DF6981062FE62E7A81F72E8E2D801BE1
:10031000811730F480E079DFF70181937F01F6CF18
:1003200084E085B90F900F90DF91CF911F910F91CD
:10033000FF90EF900895806C2A981C99FECF65DF9E
:1003400080E063DF94E095B9089568E08BE07DDF9D
:1003500060E08CE07ADF60E18DE077DF67EA8EE0D5
:1003600074DF62E68FE071DF6BE580E16EDF68EFDE
:1003700081E16BDF63E082E168DF62E283E165DFF8
:1003800068EF84E162DF60E08AE05FDF67E485E1D7
:100390005CDF66EB81E259DF60E182E256DF68E113
:1003A00088E153DF6DE189E150DF6CE18AE14DDFE7
:1003B00067EC8BE14ADF60E08CE147DF62EB8DE1C7
:1003C00044DF6AEE83E241DF6AE284E23EDF60E01E
:1003D00085E23BDF61E186E238DF69E589E235DF0E
:1003E00061E88CE232DF65E38DE22FDF69E08EE2C7
:1003F0002CDF6BE080E029DF66E082E026DF64E04E
:1004000087E023DF65E088E020DF60E089E01DDF32
:100410006DE386E01ACFEFDEFEDE84E085B980E290
:1004200085B92B98FADE91DF48E060E071E08EE359
:100430001CCF0F931F93CF93DF931F92CDB7DEB7DF
:100440008C01462F8FE3498300DF4981B8018FE398
:100450000CDF85E334DF4D9BFECF4D99FECF8AE361
:100460006ADF182F8BE32BDF1F7781E009F080E034
:100470000F90DF91CF911F910F91089584E31FCFCB
:10048000EF92FF921F93CF93DF9300D0CDB7DEB7EB
:100490007C018BE350DF182F1F7769F08FE316DFA5
:1004A000182F482FB7018FE31BDF42E0BE016F5FBB
:1004B0007F4F8FE315DF8AE302DF812F0F900F90CC
:1004C000DF91CF911F91FF90EF900895882319F04D
:1004D0008130D9F00895613051F028F0623061F038
:1004E000633079F00895809169008C7F27C08091F6
:1004F00069008C7F816022C0809169008C7F82605E
:100500001DC080916900836019C0613051F028F0EE
:10051000623061F0633079F0089580916900837FE3
:100520000DC080916900837F846008C0809169005C
:10053000837F886003C0809169008C60809369002C
:100540000895882319F0813019F00895E89A0895E4
:10055000E99A0895E82F883028F580916800816035
:10056000809368008E2F90E0FC013197E730F10511
:1005700028F4EC5EFF4F80916B00099480916B0032
:10058000816001C0826080936B0008958460FBCF1E
:100590008860F9CF8061F7CF8062F5CF8064F3CFB8
:1005A0008068F1CF88EF8E0F883028F58091680041
:1005B0008260809368008E2F90E0FC013997E730CD
:1005C000F10528F4E55EFF4F80916C00099480915D
:1005D0006C0081600DC082600BC0846009C08860BF
:1005E00007C0806105C0806203C0806401C080686C
:1005F00080936C00089580EF8E0F883028F58091ED
:1006000068008460809368008E2F90E0FC017197F1
:10061000E730F10528F4EE5DFF4F80916D000994FD
:1006200080916D0081600DC082600BC0846009C044
:10063000886007C0806105C0806203C0806401C01B
:10064000806880936D000895809168008860809331
:100650006800E93169F018F4E83131F00895EA31C1
:1006600059F0EB3169F0089580916A0081600BC008
:1006700080916A00826007C080916A00846003C034
:1006800080916A00886080936A000895882319F039
:10069000813019F00895E8980895E998089590E058
:1006A0008C31910508F07BC0FC01E75DFF4F099498
:1006B00080916B008E7F03C080916B008D7F809353
:1006C0006B006DC080916B008B7FF9CF80916B00C8
:1006D000877FF5CF80916B008F7EF1CF80916B008B
:1006E0008F7DEDCF80916B008F7BE9CF80916B0088
:1006F0008F77E5CF80916C008E7F1BC080916C005E
:100700008D7F17C080916C008B7F13C080916C002F
:10071000877F0FC080916C008F7E0BC080916C0032
:100720008F7D07C080916C008F7B03C080916C002F
:100730008F7780936C0033C080916D008E7F1BC0DB
:1007400080916D008D7F17C080916D008B7F13C0ED
:1007500080916D00877F0FC080916D008F7E0BC0F0
:1007600080916D008F7D07C080916D008F7B03C0ED
:1007700080916D008F7780936D0011C080916A0029
:100780008E7F0BC080916A008D7F07C080916A00C8
:100790008B7F03C080916A00877F80936A0080917D
:1007A0006B00811104C0809168008E7F17C080911A
:1007B0006C00811104C0809168008D7F0FC0809112
:1007C0006D00811104C0809168008B7F07C080910B
:1007D0006A00811105C080916800877F809368005E
:1007E0000895883038F08E3040F0863148F4ECE6D9
:1007F000F0E008C0EDE6F0E005C0EBE6F0E002C096
:10080000E0E0F0E09081282F277041E050E060E0C8
:1008100070E004C0440F551F661F771F2A95D2F75A
:10082000492B40832BB3883030F0803130F0883151
:1008300030F091E005C092E003C098E001C094E080
:10084000922B9BBB90916800883030F0803130F063
:10085000883130F081E005C082E003C088E001C04B
:1008600084E0892B8093680008951F920F920FB641
:100870000F9211248F9381E080930D018F910F903F
:100880000FBE0F901F901895C6DD81E354DDC82F71
:10089000F5DD81E080934B0191E02AE0E92FF0E063
:1008A000E55BFE4F20839F5F265F9D33B9F79093F2
:1008B000880160EA76E881E090E003DC811119C0EC
:1008C000FFCF3CDC61E080E415DC81111AC036DC2E
:1008D000F12C60E084E00EDC81113AC02FDC8FEF58
:1008E0009EE924E2815090402040E1F700C00000E2
:1008F000C5DD60E080E4FEDB882319F383EE26DCAF
:10090000E0CF35DCC82ED12CE12CF12C3ADCFE2CCA
:10091000ED2CDC2CCC24A7019601280F311D411DA4
:10092000511DCA01B901E1D022E538EB4FE253E491
:100930006AD120E030E040E857E365D1AAD0D5D0B5
:1009400026E636E64BE352E43FD0A3D0F62EC1CFE5
:100950008F2DFCDB8C2FFADB85E3EDDC85E3EBDC14
:10096000813059F085E3E7DC3FEF49E658E131504B
:1009700040405040E1F700C000008EE091E080DD93
:10098000F82E8823F1F080911601E0DB80910E01B2
:100990008130B9F46DE38FE358DC4DE36BE471E033
:1009A0008FE363DC85E38BDC85E3C5DCCFDB4D9B2C
:1009B000FECF4D99FECF8AE3BEDC81E0C7DB8BE33F
:1009C0007EDC8F2DC3DB8ACF5058BB27AA270ED0E1
:1009D000E0C0D1D030F0D6D020F031F49F3F11F4F8
:1009E0001EF4C6C00EF4E095E7FBBCC0E92FE2D0D0
:1009F00080F3BA17620773078407950718F071F43C
:100A00009EF5FAC00EF4E0950B2EBA2FA02D0B0127
:100A1000B90190010C01CA01A0011124FF27591B43
:100A200099F0593F50F4503E68F11A16F040A22F49
:100A3000232F342F4427585FF3CF469537952795BA
:100A4000A795F0405395C9F77EF41F16BA0B620BB9
:100A5000730B840BBAF09150A1F0FF0FBB1F661F00
:100A6000771F881FC2F70EC0BA0F621F731F841F43
:100A700048F4879577956795B795F7959E3F08F069
:100A8000B3CF9395880F08F09927EE0F9795879528
:100A9000089598D088F09F5790F0B92F9927B751B3
:100AA000A0F0D1F0660F771F881F991F1AF0BA9532
:100AB000C9F712C0B13081F09FD0B1E008959CC059
:100AC000672F782F8827B85F39F0B93FCCF3869528
:100AD00077956795B395D9F73EF490958095709585
:100AE00061957F4F8F4F9F4F0895E89409C097FB02
:100AF0003EF490958095709561957F4F8F4F9F4FF5
:100B00009923A9F0F92F96E9BB279395F695879538
:100B100077956795B795F111F8CFFAF4BB0F11F4FB
:100B200060FF1BC06F5F7F4F8F4F9F4F16C08823A2
:100B300011F096E911C0772321F09EE8872F762FD8
:100B400005C0662371F096E8862F70E060E02AF019
:100B50009A95660F771F881FDAF7880F9695879505
:100B600097F9089597F99F6780E870E060E008952D
:100B70009FEF80EC089500240A94161617061806B5
:100B80000906089500240A94121613061406050691
:100B90000895092E0394000C11F4882352F0BB0F22
:100BA00040F4BF2B11F460FF04C06F5F7F4F8F4F85
:100BB0009F4F089557FD9058440F551F59F05F3FC0
:100BC00071F04795880F97FB991F61F09F3F79F06F
:100BD00087950895121613061406551FF2CF4695F1
:100BE000F1DF08C0161617061806991FF1CF869573
:100BF0007105610508940895E894BB276627772757
:100C0000CB0197F908950AD0C4CFB5DF28F0BADF39
:100C100018F0952309F0A6CFABCFEFCFCBDFA8F329
:100C20009923D9F35523C9F3950F50E0551FAA27EF
:100C3000EE27FF27BB2700240894679520F4E20FD6
:100C4000F31FB41F0A1E220F331F441FAA1F6695ED
:100C5000A9F7779530F4F30FB41F0A1E121E08F49B
:100C60006395330F441FAA1F221F769599F7879526
:100C700020F4B40F0A1E121E631F440FAA1F221F66
:100C8000331F8695A9F7862F712D602D11249F574C
:100C900050408AF0E1F088234AF0EE0FFF1FBB1F9F
:100CA000661F771F881F91505040A9F79E3F51053E
:100CB00070F058CFA2CF5F3FECF3983EDCF38695FF
:100CC00077956795B795F795E7959F5FC1F7FE2BE9
:100CD000880F911D9695879597F90895A1E21A2E90
:100CE000AA1BBB1BFD010DC0AA1FBB1FEE1FFF1FD0
:100CF000A217B307E407F50720F0A21BB30BE40B20
:100D0000F50B661F771F881F991F1A9469F7609566
:100D10007095809590959B01AC01BD01CF01089520
:040D2000F894FFCF75
:080D24006060606060606060C7
:00000001FF
