:1000000013C02DC02CC02BC02AC073C228C027C06B
:1000100026C025C024C023C022C021C020C01FC0CC
:100020001EC01DC01CC01BC011241FBECFEFD1E0DD
:10003000DEBFCDBF11E0A0E0B1E0E0E8F6E002C035
:1000400005900D92A830B107D9F711E0A8E0B1E012
:1000500001C01D92A938B107E1F75AD20FC3D0CF22
:100060009B01AC0160E072E18AE790E0E5D2DA0141
:10007000C9014097A109B109B695A79597958795AC
:100080008093B8009091B80081E09B3008F480E044
:10009000089594EA9093BC009091BC0097FFFCCF28
:1000A0009091B900987F983021F0903111F080E064
:1000B0000895880F680F6093BB0084E88093BC00AC
:1000C0008091BC0087FFFCCF8091B900887F883188
:1000D00011F0803461F781E0089584E98093BC00D9
:1000E0008091BC0087FDFCCF08958093BB0084E81D
:1000F0008093BC008091BC0087FFFCCF9091B90039
:10010000987F81E0983209F480E0089584EC809330
:10011000BC008091BC0087FFFCCF8091BB0008959C
:1001200084E88093BC008091BC0087FFFCCF809165
:10013000BB000895413160F590910C019111FCCF05
:1001400091E090930C019FEF90930A0110920901A6
:10015000940F90930801880F90910B01892B809345
:100160000B0185EE8093BC0080910C018130E1F39E
:1001700080910901841710F440910901962FFB0129
:100180008E2F891B841710F41192FACF842F0895B3
:1001900080E0089584E085B98CE284B980E285B975
:1001A0002C9881E58CBD08958EBD0DB407FEFDCF62
:1001B0008EB50895529808952A988FEC97E001978C
:1001C000F1F700C000002A9A8FEC97E00197F1F751
:1001D00000C000002A981C99FECF80E3E5DF1C993F
:1001E000FECF84E085B90895CF93DF931F92CDB7FA
:1001F000DEB72A981C99FECF6983D6DF6981862FE6
:100200000F90DF91CF91D0CFEF92FF920F931F937A
:10021000CF93DF9300D0CDB7DEB7142F80642A9838
:100220001C99FECF69837A83BFDF6981062FE62E92
:100230007A81F72E8E2D801B811728F4F70181918A
:100240007F01B2DFF7CF84E085B90F900F90DF9187
:10025000CF911F910F91FF90EF9008952A981C99CC
:10026000FECFA2DF84E085B9089580682A981C99A2
:10027000FECF9ADF80E098DF94E095B90895EF9281
:10028000FF920F931F93CF93DF9300D0CDB7DEB7CC
:10029000142F806C2A981C99FECF69837A8384DF9F
:1002A0006981062FE62E7A81F72E8E2D801B81170D
:1002B00030F480E079DFF70181937F01F6CF84E0AD
:1002C00085B90F900F90DF91CF911F910F91FF9003
:1002D000EF900895806C2A981C99FECF65DF80E02E
:1002E00063DF94E095B9089568E08BE07DDF60E01E
:1002F0008CE07ADF60E18DE077DF67EA8EE074DF23
:1003000062E68FE071DF6BE580E16EDF68EF81E12F
:100310006BDF63E082E168DF62E283E165DF68EF63
:1003200084E162DF60E08AE05FDF67E485E15CDF53
:1003300066EB81E259DF60E182E256DF68E188E145
:1003400053DF6DE189E150DF6CE18AE14DDF67EC5D
:100350008BE14ADF60E08CE147DF62EB8DE144DF57
:100360006AEE83E241DF6AE284E23EDF60E085E23A
:100370003BDF61E186E238DF69E589E235DF61E88C
:100380008CE232DF65E38DE22FDF69E08EE22CDF65
:100390006BE080E029DF66E082E026DF64E087E052
:1003A00023DF65E088E020DF60E089E01DDF6DE3AA
:1003B00086E01ACFEFDEFEDE84E085B980E285B903
:1003C0002B98FADE91DF48E060E071E08EE31CCF0D
:1003D0000F931F93CF93DF931F92CDB7DEB78C019E
:1003E000462F8FE3498300DF4981B8018FE30CDF9B
:1003F00085E334DF4D9BFECF4D99FECF8AE36ADF64
:10040000182F8BE32BDF1F7781E009F080E00F903E
:10041000DF91CF911F910F91089584E31FCFEF9249
:10042000FF921F93CF93DF9300D0CDB7DEB77C014F
:100430008BE350DF182F1F7769F08FE316DF182F3B
:10044000482FB7018FE31BDF42E0BE016F5F7F4F94
:100450008FE315DF8AE302DF812F0F900F90DF918A
:10046000CF911F91FF90EF900895883038F08E3033
:1004700040F0863148F4ECE6F0E008C0EDE6F0E04C
:1004800005C0EBE6F0E002C0E0E0F0E09081282F4C
:10049000277041E050E060E070E004C0440F551F59
:1004A000661F771F2A95D2F7492B40832BB38830DC
:1004B00030F0803130F0883130F091E005C092E0CA
:1004C00003C098E001C094E0922B9BBB9091680020
:1004D000883030F0803130F0883130F081E005C074
:1004E00082E003C088E001C084E0892B809368002B
:1004F00008951F920F920FB60F9211248F9381E0EF
:1005000080930D018F910F900FBE0F901F90189543
:1005100051DF81E3DFDE81DF82E080934B0191E0F8
:100520002AE0E92FF0E0E55BFE4F20839F5F265F26
:100530009D33B9F79093880160EA76E881E090E016
:100540008FDD882311F0C0E422C0FFCFC6DD61E05B
:1005500084E29FDD882349F0D9DDD82FD7DD182F1D
:10056000D5DD082FD3DDF82E5E98B7DD60E084E09E
:1005700090DD811126C0B1DD2FEF8EE994E221508C
:1005800080409040E1F700C0000047DF5E98CAB9A4
:1005900060E084E27EDD8823C9F280E0A6DD80E0B1
:1005A000A4DD8FEFA2DD82E0A0DD8EEF9EDD84ED85
:1005B0009CDD82E09ADD8AE298DD80E096DDCBB9B1
:1005C000C5CF85E387DE85E385DE813059F085E39D
:1005D00081DE2FEF89E698E1215080409040E1F7DD
:1005E00000C000008EE091E01ADFE82E8D2F7DDD47
:1005F000812F7BDD802F79DD8F2D77DDEE2009F4D3
:10060000BACF8091160171DD80910E01823009F020
:10061000B2CF6DE38FE3E8DD4DE36BE471E08FE390
:10062000F3DD85E31BDE4D9BFECF4D99FECF8AE3C4
:1006300051DE8BE313DE9FCFA1E21A2EAA1BBB1B58
:10064000FD010DC0AA1FBB1FEE1FFF1FA217B3079E
:10065000E407F50720F0A21BB30BE40BF50B661FB4
:10066000771F881F991F1A9469F760957095809578
:1006700090959B01AC01BD01CF010895F894FFCF87
:08068000606060606060606072
:00000001FF
