:1000000013C02DC02CC02BC02AC029C028C027C0B7
:1000100026C025C024C023C022C021C020C01FC0CC
:100020001EC01DC01CC01BC011241FBECFEFD1E0DD
:10003000DEBFCDBF11E0A0E0B1E0EAEAF4E002C02B
:1000400005900D92A830B107D9F711E0A8E0B1E012
:1000500001C01D92A634B107E1F7D7D124C2D0CF99
:100060009B01AC0160E079E08DE390E0FAD1DA0128
:10007000C9014097A109B109B695A79597958795AC
:100080008093B8009091B80081E09B3008F480E044
:10009000089594EA9093BC009091BC0097FFFCCF28
:1000A0009091B900987F983021F0903111F080E064
:1000B0000895880F680F6093BB0084E88093BC00AC
:1000C0008091BC0087FFFCCF8091B900887F883188
:1000D00011F0803461F781E0089584E98093BC00D9
:1000E0008091BC0087FDFCCF08958093BB0084E81D
:1000F0008093BC008091BC0087FFFCCF9091B90039
:10010000987F81E0983209F480E0089584EC809330
:10011000BC008091BC0087FFFCCF8091BB0008959C
:1001200084E88093BC008091BC0087FFFCCF809165
:10013000BB00089584E085B98CE284B980E285B97A
:100140002C9880E58CBD08958EBD0DB407FEFDCFC3
:100150008EB50895529808952A9887EE93E00197F6
:10016000F1F700C000002A9A87EE93E00197F1F7BB
:1001700000C000002A981C99FECF80E3E5DF1C999F
:10018000FECF84E085B90895CF93DF931F92CDB75A
:10019000DEB72A981C99FECF6983D6DF6981862F46
:1001A0000F90DF91CF91D0CFEF92FF920F931F93DB
:1001B000CF93DF9300D0CDB7DEB7142F80642A9899
:1001C0001C99FECF69837A83BFDF6981062FE62EF3
:1001D0007A81F72E8E2D801B811728F4F7018191EB
:1001E0007F01B2DFF7CF84E085B90F900F90DF91E8
:1001F000CF911F910F91FF90EF9008952A981C992D
:10020000FECFA2DF84E085B9089580682A981C9902
:10021000FECF9ADF80E098DF94E095B90895EF92E1
:10022000FF920F931F93CF93DF9300D0CDB7DEB72C
:10023000142F806C2A981C99FECF69837A8384DFFF
:100240006981062FE62E7A81F72E8E2D801B81176D
:1002500030F480E079DFF70181937F01F6CF84E00D
:1002600085B90F900F90DF91CF911F910F91FF9063
:10027000EF900895806C2A981C99FECF65DF80E08E
:1002800063DF94E095B9089568E08BE07DDF60E07E
:100290008CE07ADF60E18DE077DF67EA8EE074DF83
:1002A00062E68FE071DF6BE580E16EDF68EF81E190
:1002B0006BDF63E082E168DF62E283E165DF68EFC4
:1002C00084E162DF60E08AE05FDF67E485E15CDFB4
:1002D00066EB81E259DF60E182E256DF68E188E1A6
:1002E00053DF6DE189E150DF6CE18AE14DDF67ECBE
:1002F0008BE14ADF60E08CE147DF62EB8DE144DFB8
:100300006AEE83E241DF6AE284E23EDF60E085E29A
:100310003BDF61E186E238DF69E589E235DF61E8EC
:100320008CE232DF65E38DE22FDF69E08EE22CDFC5
:100330006BE080E029DF66E082E026DF64E087E0B2
:1003400023DF65E088E020DF60E089E01DDF6DE30A
:1003500086E01ACFEFDEFEDE84E085B980E285B963
:100360002B98FADE91DF48E060E071E08EE31CCF6D
:100370000F931F93CF93DF931F92CDB7DEB78C01FE
:10038000462F8FE3498300DF4981B8018FE30CDFFB
:1003900085E334DF4D9BFECF4D99FECF8AE36ADFC4
:1003A000182F8BE32BDF1F7781E009F080E00F909F
:1003B000DF91CF911F910F91089584E31FCFEF92AA
:1003C000FF921F93CF93DF9300D0CDB7DEB77C01B0
:1003D0008BE350DF182F1F7769F08FE316DF182F9C
:1003E000482FB7018FE31BDF42E0BE016F5F7F4FF5
:1003F0008FE315DF8AE302DF812F0F900F90DF91EB
:10040000CF911F91FF90EF90089580E090E0E82F4A
:10041000F0E0E85FFE4F90838F5F9E5F8D33B9F70A
:100420008093450197DF81E325DF6DE38FE3ACDE49
:100430004DE368E071E08FE3B7DE85E3DFDE4D9BDF
:10044000FECF4D99FECF8AE315DF8BE3D7DE2FEF8A
:1004500089E698E1215080409040E1F700C000001B
:10046000E4CFA1E21A2EAA1BBB1BFD010DC0AA1FDF
:10047000BB1FEE1FFF1FA217B307E407F50720F00D
:10048000A21BB30BE40BF50B661F771F881F991F88
:100490001A9469F760957095809590959B01AC01D1
:0A04A000BD01CF010895F894FFCFCD
:0804AA0060606060606060604A
:00000001FF
