:1000000013C025C024C023C022C021C020C01FC0EF
:100010001EC01DC01CC01BC01AC019C018C017C00C
:1000200016C015C014C013C011241FBECFEFD1E0FD
:10003000DEBFCDBF11E0A0E0B1E0EEE3F3E002C02F
:1000400005900D92A830B107D9F776D176C1D8CFF7
:100050002D9A8CE284B980E58CBD90E295B98CBD77
:1000600008958EBD0DB407FEFDCF8EB50895559A47
:1000700008952A9887EE93E00197F1F700C00000F9
:100080002A9A87EE93E00197F1F700C000002A98C2
:100090001C99FECF80E3E5DF1C99FECF2A980895D6
:1000A0001F93CF93DF931F92CDB7DEB7182F2A98F7
:1000B0001C9B05C0812F6983D4DF6981F9CF862F0E
:1000C000D0DF2A9A0F90DF91CF911F910895EF9280
:1000D000FF920F931F93CF93DF9300D0CDB7DEB77E
:1000E000142F80642A981C99FECF69837A83B9DF24
:1000F0006981062FE62E7A81F72E8E2D801B8117BF
:1001000028F4F70181917F01ACDFF7CF2A9A0F9095
:100110000F90DF91CF911F910F91FF90EF90089575
:100120002A981C99FECF9DDF2A9A089580682A9804
:100130001C99FECF96DF80E094DF2A9A0895EF9213
:10014000FF920F931F93CF93DF9300D0CDB7DEB70D
:10015000142F806C2A981C99FECF69837A8381DFE3
:100160006981062FE62E7A81F72E8E2D801B81174E
:1001700030F480E076DFF70181937F01F6CF2A9A91
:100180000F900F90DF91CF911F910F91FF90EF9003
:100190000895806C2A981C99FECF63DF80E061DFB0
:1001A0002A9A089568E08BE07BDF60E08CE078DFDE
:1001B00060E18DE075DF67EA8EE072DF62E68FE076
:1001C0006FDF6BE580E16CDF68EF81E169DF63E0A1
:1001D00082E166DF62E283E163DF68EF84E160DF92
:1001E00060E08AE05DDF67E485E15ADF66EB81E28B
:1001F00057DF60E182E254DF68E188E151DF6DE1C1
:1002000089E14EDF6CE18AE14BDF67EC8BE148DF8F
:1002100060E08CE145DF62EB8DE142DF6AEE83E274
:100220003FDF6AE284E23CDF60E085E239DF61E1E2
:1002300086E236DF69E589E233DF61E88CE230DFB0
:1002400065E38DE22DDF69E08EE22ADF6BE080E07E
:1002500027DF66E082E024DF64E087E021DF65E0FD
:1002600088E01EDF60E089E01BDF6DE386E018CFE9
:10027000EFDEFDDE2A9A2D9A2B98FBDE93DF48E015
:1002800060E071E08EE323CF0F931F93CF93DF9352
:100290001F92CDB7DEB78C01462F8FE3498300DF75
:1002A0004981B8018FE313DF85E33ADF4D9BFECF31
:1002B0004D99FECF8AE36DDF182F8BE331DF1F7777
:1002C00081E009F080E00F90DF91CF911F910F91B5
:1002D000089584E325CF99B195FB882780F995FF90
:1002E00003C04D99FECF81E00895EF92FF921F93D6
:1002F000CF93DF9300D0CDB7DEB77C018BE349DF2E
:10030000182F1F7769F08FE311DF182F482FB701DF
:100310008FE315DF42E0BE016F5F7F4F8FE30FDF9A
:100320008AE3FEDE812F0F900F90DF91CF911F9116
:0E033000FF90EF9008950895FFCFF894FFCF4F
:08033E006060606060606060B7
:00000001FF
