:1000000013C02DC02CC02BC02AC029C028C027C0B7
:1000100026C025C024C023C022C021C020C01FC0CC
:100020001EC01DC01CC01BC011241FBECFEFD1E0DD
:10003000DEBFCDBF11E0A0E0B1E0E0EFF4E002C030
:1000400005900D92A830B107D9F711E0A8E0B1E012
:1000500001C01D92A634B107E1F7DFD147C2D0CF6E
:100060009B01AC0160E079E08DE390E01DD2DA0104
:10007000C9014097A109B109B695A79597958795AC
:100080008093B8009091B80081E09B3008F480E044
:10009000089594EA9093BC009091BC0097FFFCCF28
:1000A0009091B900987F983021F0903111F080E064
:1000B0000895880F680F6093BB0084E88093BC00AC
:1000C0008091BC0087FFFCCF8091B900887F883188
:1000D00011F0803461F781E0089584E98093BC00D9
:1000E0008091BC0087FDFCCF08958093BB0084E81D
:1000F0008093BC008091BC0087FFFCCF9091B90039
:10010000987F81E0983209F480E0089584EC809330
:10011000BC008091BC0087FFFCCF8091BB0008959C
:1001200084E88093BC008091BC0087FFFCCF809165
:10013000BB0008952A9A8CE284B980E58CBD2D9A83
:100140002B988CBD08958EBD0DB407FEFDCF8EB5E6
:100150000895559808952A9887EE93E00197F1F74E
:1001600000C000002A9A87EE93E00197F1F700C0E3
:1001700000002A981C99FECF80E3E5DF1C99FECF92
:100180002A9808951F93CF93DF931F92CDB7DEB7C0
:10019000182F2A981C9B05C0812F6983D4DF6981A1
:1001A000F9CF862FD0DF2A9A0F90DF91CF911F9140
:1001B0000895EF92FF920F931F93CF93DF9300D098
:1001C000CDB7DEB7142F80642A981C99FECF6983BF
:1001D0007A83B9DF6981062FE62E7A81F72E8E2D7C
:1001E000801B811728F4F70181917F01ACDFF7CFE5
:1001F0002A9A0F900F90DF91CF911F910F91FF904E
:10020000EF9008952A981C99FECF9DDF2A9A0895B1
:1002100080682A981C99FECF96DF80E094DF2A9AA6
:100220000895EF92FF920F931F93CF93DF9300D027
:10023000CDB7DEB7142F806C2A981C99FECF698346
:100240007A8381DF6981062FE62E7A81F72E8E2D43
:10025000801B811730F480E076DFF70181937F0106
:10026000F6CF2A9A0F900F90DF91CF911F910F91A7
:10027000FF90EF900895806C2A981C99FECF63DF61
:1002800080E061DF2A9A089568E08BE07BDF60E020
:100290008CE078DF60E18DE075DF67EA8EE072DF89
:1002A00062E68FE06FDF6BE580E16CDF68EF81E194
:1002B00069DF63E082E166DF62E283E163DF68EFCA
:1002C00084E160DF60E08AE05DDF67E485E15ADFBA
:1002D00066EB81E257DF60E182E254DF68E188E1AA
:1002E00051DF6DE189E14EDF6CE18AE14BDF67ECC4
:1002F0008BE148DF60E08CE145DF62EB8DE142DFBE
:100300006AEE83E23FDF6AE284E23CDF60E085E29E
:1003100039DF61E186E236DF69E589E233DF61E8F2
:100320008CE230DF65E38DE22DDF69E08EE22ADFCB
:100330006BE080E027DF66E082E024DF64E087E0B6
:1003400021DF65E088E01EDF60E089E01BDF6DE310
:1003500086E018CFEFDEFDDE2A9A2D9A2B98FBDE81
:1003600093DF48E060E071E08EE323CF0F931F93AB
:10037000CF93DF931F92CDB7DEB78C01462F8FE36B
:10038000498300DF4981B8018FE313DF85E33ADF5A
:100390004D9BFECF4D99FECF8AE36DDF182F8BE387
:1003A00031DF1F7781E009F080E00F90DF91CF917E
:1003B0001F910F91089584E325CF99B195FB88276C
:1003C00080F995FF03C04D99FECF81E00895EF922B
:1003D000FF921F93CF93DF9300D0CDB7DEB77C01A0
:1003E0008BE349DF182F1F7769F08FE311DF182F98
:1003F000482FB7018FE315DF42E0BE016F5F7F4FEB
:100400008FE30FDF8AE3FEDE812F0F900F90DF91E5
:10041000CF911F91FF90EF90089580E090E0E82F3A
:10042000F0E0E85FFE4F90838F5F9E5F8D33B9F7FA
:10043000809345018FDF81E31EDF182F60EA76E8A5
:1004400081E090E00DDE811110C0FFCF4D9BFECF0B
:100450004D99FECF85E30FDFC82F8BE3D3DE60E03D
:1004600084E017DE81110FC038DE6DE38FE38ADE92
:100470004DE368E071E08FE39CDE85E3C3DE85E356
:10048000FADED82FE3CF812F30DE8D2F2EDE8C2F9A
:100490002CDE23DE2FE789EA93E021508040904054
:1004A000E1F700C00000E1CFA1E21A2EAA1BBB1B9E
:1004B000FD010DC0AA1FBB1FEE1FFF1FA217B30730
:1004C000E407F50720F0A21BB30BE40BF50B661F46
:1004D000771F881F991F1A9469F76095709580950A
:1004E00090959B01AC01BD01CF010895F894FFCF19
:0804F000606060606060606004
:00000001FF
